:100000005CEF06F00000000000EF00F000000000D0
:0A0010000000000000000000F3D71C
:10001C000F0E0C6E470E0D6E0D2EFED70C2EFCD750
:06002C00000000001200BC
:0A003200210E0D6E0D2EFED71200F8
:06003C00000000001200AC
:100042000B840BAE2CEF00F0010E036E026A016A04
:0A005200006A0A360232FF0E1200A7
:08005C000AAE029E000E120024
:1000640078BE02D0839E01D0838E78BC02D0839C5C
:1000740001D0838C78BA02D0839A01D0838A78B86D
:1000840002D0839801D0838852B002D0848001D0FA
:1000940084908482D1DF849278B602D0839E01D08A
:1000A400838E78B402D0839C01D0838C78B202D042
:1000B400839A01D0838A78B002D0839801D0838850
:1000C40052B002D0848001D084908482B5DF8492BF
:0C00D40052A002D0A1DF01D0AADF120070
:0E00E000026A016A006A086A036A000E1200D2
:1000EE000B820BAE81EF00F00368026801680068B6
:0800FE000A360232FF0E120067
:100106000B800BAE8FEF00F0026A0AAEFF0E026E96
:0C011600016E006E0A360232FF0E12006D
:100122000A6A0350D8A40A800750D8A40A820A5047
:10013200D8B4F4EF00F0030AD8B4ADEF00F00AB07F
:10014200A8EF00F006AEF2EF00F0F0EF00F002AE22
:10015200F0EF00F0F2EF00F00250800B0A6E029E08
:100162000650800B069E0A18D8B4BEEF00F00A5063
:10017200D8B4F0EF00F0F2EF00F00750035CD8B40F
:10018200C8EF00F0D8A0E4EF00F0EAEF00F006506C
:10019200025CD8B4D2EF00F0D8A0E4EF00F0EAEFAE
:1001A20000F00550015CD8B4DCEF00F0D8A0E4EF19
:1001B20000F0EAEF00F00450005CD8B4F4EF00F075
:1001C200D8B0EAEF00F00A52D8B4F2EF00F0F0EF44
:1001D20000F00A52D8B4F0EF00F0F2EF00F0D8804D
:0E01E2001200D8901200D880D88412001200AB
:0C01F000529074C078F036DF528012008C
:0801FC000B6A0B86FF0E1200D6
:1002040074C004F075C005F004C002F005C003F02A
:10021400044A052A76C000F077C001F0764A772AAE
:1002240000C0E9FF01C0EAFF02C0E1FF03C0E2FF32
:10023400EECFE6FF02C0E9FF03C0EAFFEE5201E0A1
:0C024400E3D774C000F075C001F0120098
:100250000C6A0E6A0250D8A441EF01F001C002F00E
:1002600000C001F0006A0E860250D8A441EF01F0F0
:1002700001C002F0016A0E960E880250D8B453EF06
:1002800001F00E50035ED8A4D8A058EF01F0D8902A
:1002900002BE5DEF01F0003601360236032E48EF54
:1002A00001F058EF01F0010E0C6E1ADF60EF01F063
:1002B000020E0C6EC6DE60EF01F0040E0C6ECEDE98
:0202C00012002A
:0C02C2000E0E0D6E0D2EFED70000120077
:1002CE00086A096A000E07620364ECEF01F002503F
:1002DE0006180A6E075003267E0ED8A07DEF01F099
:1002EE00035ED8B0F0EF01F081EF01F0035ED8A00D
:1002FE00F4EF01F0028E068E02C00EF001C00BF07C
:10030E0000C00DF000500402F4CF0CF001500502B5
:10031E00F4CF00F0F3CF08F00402F3500C26F450A3
:10032E000822000E00220D500502F3500C26F45048
:10033E000822000E002202500402F3500826F45048
:10034E00002202500502016A000E0122F35000261F
:10035E00F45001220D500602F3500826F4500022EC
:10036E00026A000E012202220B500602F3500026F2
:10037E00F4500122000E02220E500602F350012606
:10038E00F450022202BED4EF01F0083600360136D8
:10039E0002360306D8B4F4EF01F0E7EF01F0D8808F
:1003AE00800E08640030000E002201220222D8A026
:1003BE00E7EF01F0023201320032034AF0EF01F0B2
:1003CE000AAE029E000EF6EF01F0010E82DEF6EF8F
:1003DE0001F0020E85DEF6EF01F0040E2BDE1200A8
:1003EE000D6A086A0050D8B4000C04180A6E0ABED2
:1003FE000D1E0B6A04AE02D0041E042A00AE02D0FB
:10040E00001E002A005004100A6E0ABE1FD00450AF
:10041E00085E003600340836045008260036060EF4
:10042E000C6E00340836045000B0085E00A008269A
:10043E0000360C2EF6D700A008260BB015D00DAE48
:10044E00000C001E002A081E082A000C04AE09D05B
:10045E0000BE04D00050086E006AF1D7006A002A70
:10046E00000C001E0B2AD3D7082A0450085CD8A40F
:0E047E00E6D7086A002A00AEE2D7FF0C120093
:10048C000900F5CFE6FF0006FBE10106F9E11200D9
:10049C00969296909598959A959C959E8492849018
:1004AC00839E839C839A8398B3DDB2DDB1DD838A0E
:1004BC0083888482BDDD8492ABDD8482B9DD849235
:1004CC00A7DD8482B5DD8492A3DD83988482B0DDC0
:1004DC0084929EDD8482ACDD8492839A838E8482A6
:1004EC00A7DD849295DD839E83888482A1DD84922E
:1004FC00839884829DDD84928BDD848299DD849245
:10050C008388848295DD849283DD8398848290DD58
:10051C008492838E838C838A8388848289DD8492FF
:06052C0077DD5280120091
:100532000FD0800E666E19D0C00E666E16D0940E65
:10054200666E13D0D40E666E10D0800E666E0DD01D
:100552006650010AEEE06650020AEEE06650030AB7
:10056200EEE06650040AEEE0F0D76704006E6650D3
:10057200002600C066F000C078F073DD52906A6A0F
:100582006A506824E96E000E6920EA6EEE520BE0B2
:100592006A506824E96E000E6920EA6EEECF74F0AC
:0A05A20026DE6A2AEDD7528012000F
:1005AC0000C008F00150006E016A026A036A0B6A0F
:1005BC000C6A016A026A036A960E036E0A6A00AE3E
:1005CC00EEEF02F0081E001E082AD8B4002A0A8E8C
:1005DC0000C001F008C000F0086A026A33DE1200A5
:1005EC000450000A12E10550000A0FE10650000AFF
:1005FC000CE10750000A09E1FF0E006EFF0E016EC0
:10060C007F0E026EFF0E036EA4D0086A096A0750B3
:10061C00D8B4A1EF03F00350D8B4A5EF03F0025007
:10062C0006180A6E028E068E0E6A02C008F001C011
:10063C000CF000C00DF004500D5E0550D8A0053C28
:10064C000C5E0650D8A0063C085E086A0C6A0D6A5F
:10065C00D8A038EF03F0D8900232013200320832C1
:10066C00010E0E6E0750035ED8A045EF03F07E0E10
:10067C000E240326D8B0A9EF03F04BEF03F07E0E47
:10068C000E240326D8A0ADEF03F0180E0B6E0D361A
:10069C000C3608360036013602360E360450005E33
:1006AC000550D8A0053C015E0650D8A0063C025E61
:1006BC0006340E120EA066EF03F00D8071EF03F0FE
:1006CC00045000260550D8B0053C01260650D8B081
:1006DC00062802260D900B2E4DEF03F097EF03F03A
:1006EC00D8900036013602360E360450005E0550A6
:1006FC00D8A0053C015E0650D8A0063C025E06342C
:10070C000E10010B0D26D8B00C2AD8B4082AD8A488
:10071C0097EF03F008320C320D32032AD8B4A9EF4C
:10072C0003F00AAE089E0850026E0C50016E0D507C
:10073C00006EAFEF03F0010E5BDDAFEF03F0020EC6
:10074C00C9DCAFEF03F0040ECCDCAFEF03F0080E06
:04075C0072DC120039
:100760000B6A0350D8B4F6EF03F002500A6E028E03
:100770008E0E035E03AEFAEF03F0036C080E035C0B
:10078000D8A0D5EF03F0036E013602C001F0026A73
:10079000080E035CD8A0D5EF03F0036E0136016AA2
:1007A0000350D8A4D890DFEF03F00350D8B4DFEFA4
:1007B00003F0D89002320132032ED9EF03F00BBCC4
:1007C00001A0ECEF03F0D8A0ECEF03F0012AD8B4BD
:1007D000022A02BE09EF04F00AAE0EEF04F0021E78
:1007E000011E012AD8B4022A0EEF04F0026A016A3F
:1007F0000EEF04F00B800BAE12EF04F0026A0AAEAB
:1008000012EF04F0FF0E026E016E0A36023212EF92
:1008100004F0010E0C6E77DC14EF04F0000E0C6E89
:1008200014EF04F0FF0E0C6E0150006E0250016ECA
:020830001200B4
:10083200C26A4D1C006E0050C116070EC012C08E57
:1008420066C000F000360090003600900050C212E0
:10085200C28036DDC282C2A201D0FDD7C4CF01F070
:0E086200006AC3500012000E0112C290120074
:100870000050086E0150006E016A026A036A0B6A3A
:100880000C6A960E036E0A6A00C001F008C000F000
:08089000086A026ADDDC1200B7
:10089800726A736A66C06EF067C06FF068C070F005
:1008A80069C071F07150FF0A08E17050FF0A05E154
:1008B8006F50FF0A02E16E50FF0A0CE16AC074F043
:1008C8006BC075F04E0E766E000E776E97DC030ED9
:1008D800006EEDD1010E6C6E70AE0ED0800E7018E9
:1008E800006E00C070F06C2A6AC0E1FF6BC0E2FFC6
:1008F8002D0EE66E6A4A6B2A000E006E711808E12A
:100908000050701805E100506F1802E16E50000A9F
:100918000BE16AC074F06BC075F0470E766E000E7E
:10092800776E6CDC006AC3D17150FF0A08E1705021
:10093800000A05E16F50000A02E16E50000A0CE15E
:100948006AC074F06BC075F0490E766E000E776E53
:1009580055DC6CC000F0ABD1000E046E000E056EC5
:10096800000E066E7F0E076E6EC000F06FC001F0BD
:1009780070C002F071C003F091EC00F0010ED8B025
:10098800000E006E00521BE06EC000F06FC001F058
:1009980070C002F071C003F0000E046E000E056E08
:1009A800200E066E820E076E8EDC00C06EF001C04F
:1009B8006FF002C070F003C071F07306CDD7000E5F
:1009C800046E000E056E200E066E820E076E6EC057
:1009D80000F06FC001F070C002F071C003F091EC3C
:1009E80000F0000ED8B0010E006E00521BE06EC081
:1009F80000F06FC001F070C002F071C003F0CD0EBE
:100A0800046ECC0E056E4C0E066E7B0E076E5BDC1C
:100A180000C06EF001C06FF002C070F003C071F04A
:100A2800732ACDD7FF0E6E14086EFF0E6F14096E71
:100A38007F0E70140A6E000E71140B6E08C004F05D
:100A480009C005F00AC006F00BC007F00436049090
:100A5800053606360736000E6E14006E000E6F144B
:100A6800016E000E7014026EFF0E7114036E00C04A
:100A78006EF001C06FF002C070F003C071F0045056
:100A88006E10006E05506F10016E06507010026EE9
:100A980007507110036E00C06EF001C06FF002C005
:100AA80070F003C071F07F0E715C006E00C06DF0D5
:100AB800010E716E00C004F06EC000F06FC001F04E
:100AC80070C002F071C003F0045007E000360090D7
:100AD800013602360336FF0FF8D700C06EF001C0AA
:100AE8006FF002C070F003C071F06AC0E1FF6BC024
:100AF800E2FF7150300FE66E6A4A6B2A800E731857
:100B0800006E800E010A005C08E3800E060A006E83
:100B1800800E7318005C01E30AD06AC0E1FF6BC065
:100B2800E2FF2E0EE66E6A4A6B2A010E726E060E00
:100B38006D6E6D50000A54E0716A6EC000F06FC0AF
:100B480001F070C002F071C003F000360090013669
:100B580002360336003600900136023603366E50F0
:100B680000266F500122705002227150032200C0EB
:100B78006EF001C06FF002C070F003C071F06EC07B
:100B880000F06FC001F070C002F071C003F00036D1
:100B9800009001360236033600C06EF001C06FF0D7
:100BA80002C070F003C071F06AC0E1FF6BC0E2FFE1
:100BB8007150300FE66E6A4A6B2A7250000A0EE1D5
:100BC80073067350000A0AE16AC0E1FF6BC0E2FFD6
:100BD8002E0EE66E6A4A6B2A010E726E6D06A9D752
:100BE800FF0E6A24E96EFF0E6B20EA6EEE50300AA3
:100BF80005E1010E6A5E000E6B5AF2D7FF0E6A24F9
:100C0800E96EFF0E6B20EA6EEE502E0A04E1010E2B
:100C18006A5E000E6B5A7350000A43E06AC0E1FF37
:100C28006BC0E2FF650EE66E6A4A6B2A800E731887
:100C3800006E800E000A005C0BE26AC0E1FF6BC028
:100C4800E2FF2D0EE66E6A4A6B2A73500008736E37
:100C580073C06DF0800E090A006E800E7318005C78
:100C68000FE20A0E046E6DC000F0F7EC01F06AC0E6
:100C7800E1FF6BC0E2FF0050300FE66E6A4A6B2A54
:100C88000A0E046E6DC000F0F7EC01F008C000F029
:100C98006AC0E1FF6BC0E2FF0050300FE66E6A4A9F
:100CA8006B2A6AC0E1FF6BC0E2FFE66A006A1200C5
:100CB800C3EC07F0070EB46E010EC26E0E0EC16EC5
:100CC800A60EC06EFF0E926E946A010E936E816A34
:100CD800966A826A4EEC02F0010E786E32EC00F0F1
:100CE8000C0E786E32EC00F0010E666E010E676E27
:100CF8003A0E686E000E696E18DC666A96DD00C0F2
:100D080064F001C065F0B0DD000E046E000E056EE3
:100D1800200E066E810E076E67EC01F0000E046E61
:100D2800000E056E000E066E890E076E5BDC000E67
:100D3800046E000E056E700E066E840E076E67EC6C
:100D480001F0000E046E000E056E200E066E810E78
:100D5800076E48DC01DD00C062F001C063F022DCF0
:100D680000C066F001C067F002C068F003C069F017
:100D7800530E6A6E000E6B6E8BDD556A020E666E40
:100D8800010E676E530E686E000E696E99EC02F0E4
:100D9800020E666E030E676E380E686E000E696E80
:100DA80099EC02F081A0CAD0010E786E32EC00F006
:100DB800010E666E010E676E2C0E686E000E696E6F
:100DC80099EC02F062C000F063C001F0D6EC02F0CA
:100DD80000C066F001C067F002C068F003C069F0A7
:100DE800530E6A6E000E6B6E53DD556A020E666E08
:100DF800010E676E530E686E000E696E99EC02F074
:100E0800020E666E030E676E360E686E000E696E11
:100E180099EC02F0800E6318006E800E005C02E10F
:100E2800000E625CD8A08AD0010E625E000E635A82
:100E38000B0E0B6E260E0C6E5D0E0D6E0D2EFED774
:100E48000C2EFCD70B2EFAD700000000800E006E87
:100E5800800E6318005C02E16250000838E3010E5E
:100E6800786E32EC00F0010E666E010E676E150E9C
:100E7800686E000E696E99EC02F0020E666E010E45
:100E8800676E250E686E000E696E99EC02F082821C
:100E980082840B0E0B6E260E0C6E5D0E0D6E0D2EE3
:100EA800FED70C2EFCD70B2EFAD70000000082923A
:100EB8008294010E786E32EC00F0020E666E010E1E
:100EC800676E530E686E000E696E99EC02F0010EA3
:100ED800786E32EC00F0010E666E010E676E1B0E26
:100EE800686E000E696E99EC02F062C000F063C093
:100EF80001F0D6EC02F000C066F001C067F002C055
:100F080068F003C069F0530E6A6E000E6B6EC0DCA9
:100F1800556A020E666E010E676E530E686E000EFD
:100F2800696E99EC02F0020E666E030E676E450E4E
:100F3800686E000E696E99EC02F06CD7DED6FFD7AA
:100F860010EE15F03D0E006E010E016E480EF66E67
:0E0F96000F0EF76E000EF86E46EC02F0120021
:060F4800417669736F00A1
:0A0F4E00434F4E544147454D3A0011
:070F580050726F6E746F0010
:0A0F5F00434F4E544147454D3A0000
:020F6900730013
:020F6B00730011
:0B0F6D0054454D504F202873293A00D6
:020F7800730004
:020F7A00300045
:040F7C00494E460094
:010F80003040
:040F81004E614E006F
:020000040030CA
:0D000100021F1EFF8381FF0FC00FE00F40A4
:00000001FF
