:10000000FAEF00F00000000000EF00F00000000038
:0A0010000000000000000000F3D71C
:06001C00000000001200CC
:100022000F0E0C6E470E0D6E0D2EFED70C2EFCD74A
:06003200000000001200B6
:0A003800210E0D6E0D2EFED71200F2
:10004200000194BF02D0839E01D0838E94BD02D062
:10005200839C01D0838C94BB02D0839A01D0838A83
:1000620094B902D0839801D0838887B102D084806A
:1000720001D084908482D1DF849294B702D0839E8F
:1000820001D0838E94B502D0839C01D0838C94B32B
:1000920002D0839A01D0838A94B102D0839801D08E
:1000A200838887B102D0848001D084908482B5DFB6
:0E00B200849287A102D0B4DF01D0BDDF12001E
:0E00C0000001879193C094F0BCDF878112008D
:1000CE000900F5CFE6FF0006FBE10106F9E112009B
:1000DE00969296909598959A959C959E84928490DA
:1000EE00839E839C839A839895DF94DF93DF838A24
:1000FE00838884828CDF84928DDF848288DF849271
:10010E0089DF848284DF849285DF839884827FDF17
:10011E00849280DF84827BDF8492839A838E8482B2
:10012E0076DF849277DF839E8388848270DF849269
:10013E00839884826CDF84926DDF848268DF849280
:10014E008388848264DF849265DF839884825FDF94
:10015E008492838E838C838A8388848258DF8492F0
:08016E0059DF00018781120036
:1001760010D0800E00018E6F1AD0C00E8E6F17D071
:10018600940E8E6F14D0D40E8E6F11D0800E8E6F9B
:100196000ED000018E51010AECE08E51020AEDE00C
:1001A6008E51030AEDE08E51040AEDE0EFD78F057C
:1001B600006E8E51002600C08EF000C094F03EDF27
:1001C6008791926B92519025E96E000E9121EA6E0D
:1001D600EE520BE092519025E96E000E9121EA6EE7
:0E01E600EECF93F06ADF922BEDD787811200E7
:1001F400FCEC01F0070EB46E010E946E966A010ECB
:10020400936E100E926E816A846A826A806A0F0EFF
:10021400C16E829481948096819682925EDF010EF3
:10022400946F0DDF0C0E946F0ADF010E8E6F010EBA
:100234008F6F5E0E906F000E916F9BDF010E8E6FBD
:10024400090E8F6F530E906F000E916F92DF020EA6
:100254008E6F010E8F6F480E906F000E916F89DFC5
:1002640081A02FD0010E946FEADE807681768272AF
:10027400010E8E6F010E8F6F780E906F000E916FCE
:1002840078DF020E8E6F010E8F6F80A605D0710E7F
:10029400886F000E896F04D0670E886F000E896F17
:1002A40088C090F089C091F064DF030E0B6E080ED5
:1002B4000C6E770E0D6E0D2EFED70C2EFCD70B2E6A
:1002C400FAD782A02DD08274010E946FB8DE010E8D
:1002D4008E6F010E8F6F260E906F000E916F49DFA7
:1002E400020E8E6F010E8F6F82A405D01F0E8A6FCF
:1002F400000E8B6F04D0150E8A6F000E8B6F8AC0B0
:1003040090F08BC091F035DF030E0B6E080E0C6E6F
:10031400770E0D6E0D2EFED70C2EFCD70B2EFAD7B2
:1003240080A82DD0010E946F8ADE010E8E6F010E0F
:100334008F6F400E906F000E916F1BDF020E8E6F59
:10034400010E8F6F81A405D0390E8C6F000E8D6F56
:1003540004D02F0E8C6F000E8D6F8CC090F08DC06A
:1003640091F007DF030E0B6E080E0C6E770E0D6E08
:100374000D2EFED70C2EFCD70B2EFAD7817470D716
:02038400FFD7A1
:1003F80010EE15F0720E006E010E016E860EF66E8E
:0E040800030EF76E000EF86E67EC00F01200A7
:0A0386004445534C494741444F00E1
:070390004C494741444F00B6
:090397004558415553544F5200E2
:0A03A0004445534C494741444100D5
:0703AA004C494741444100AA
:0803B1004C414D504144410054
:0B03B90042332D4C414D5041444100A7
:0B03C40042322D4558415553542E0085
:0903CF0042312D434F52542E001F
:0A03D8004445534C4947414441009D
:0703E2004C49474144410072
:0F03E900434F5254494E4120442741475541004C
:020000040030CA
:0D000100871F1EFF8381FF0FC00FE00F401F
:00000001FF
