:10000000E9EF01F00000000000EF00F00000000048
:0A0010000000000000000000F3D71C
:0A001C00210E0D6E0D2EFED712000E
:100026000F0E0C6E470E0D6E0D2EFED70C2EFCD746
:06003600000000001200B2
:06003C00000000001200AC
:100042007EBE02D0839E01D0838E7EBC02D0839C72
:1000520001D0838C7EBA02D0839A01D0838A7EB883
:1000620002D0839801D0838846B002D0848001D028
:1000720084908482E2DF84927EB602D0839E01D095
:10008200838E7EB402D0839C01D0838C7EB202D058
:10009200839A01D0838A7EB002D0839801D083886C
:1000A20046B002D0848001D084908482C6DF8492DC
:0C00B20046A002D0B7DF01D0B0DF120082
:0C00BE0046907DC07EF0BEDF4680120040
:1000CA000FD0800E786E19D0C00E786E16D0940EAE
:1000DA00786E13D0D40E786E10D0800E786E0DD054
:1000EA007850010AEEE07850020AEEE07850030AEE
:1000FA00EEE07850040AEEE0F0D77904006E78500A
:10010A00002600C078F000C07EF096DF46907C6A38
:10011A007C507A24E96E000E7B20EA6EEE520BE0E8
:10012A007C507A24E96E000E7B20EA6EEECF7DF0D9
:0A013A00C1DF7C2AEDD746801200D9
:0401440081721200B2
:100148000B6A0A6A096A00500402F4CF09F0F3CF77
:1001580008F001500502F4CF0BF0F3CF0AF000507D
:100168000502F3500926F4500A22E86A0B220150CE
:100178000402F3500926F4500A22E86A0B2208C048
:1001880000F009C001F00AC002F00BC003F0120031
:04019800817212005E
:0C019C0075B002D0819201D08182120067
:1001A800010E7E6E4ADF0C0E7E6E47DF010E786E02
:1001B800060E796E150E7A6E000E7B6E82DF8274E3
:0201C800120023
:1001CA000FD0800E756E19D0C00E756E16D0940EB3
:1001DA00756E13D0D40E756E10D0800E756E0DD05C
:1001EA007550010AEEE07550020AEEE07550030AF6
:1001FA00EEE07550040AEEE0F0D77604006E755012
:10020A00002600C075F0468000C07EF015DF4690DB
:0A021A0077C07EF011DF468012006D
:1002240075C0F6FF76C0F7FF77C0F8FF0900F5CF79
:1002340000F0005210E075C0F6FF76C0F7FF77C0FB
:10024400F8FF0900F5CF7DF038DF010E7526000EAA
:0802540076227722E5D71200A3
:10025C00736A010E746E010E7E6EEDDE000E711867
:10026C0002E1000E701802E1006A4DD0030E006E20
:10027C00000E016E73C004F0000E056E5FDF0050BF
:10028C007024E96E01507120EA6EEE50EE10EE1003
:10029C0033E07250735C02E2732AE8D77350721821
:1002AC0008E174C075F0010E766E3E0E776E87DF36
:1002BC0007D074C075F0010E766E200E776E7FDF5E
:1002CC00742A030E006E000E016E73C004F0000E53
:1002DC00056E34DF00507024E96E01507120EA6E17
:1002EC00020EEE24756E000EEE20766E000EEE20E1
:1002FC00776E92DF732ABAD77350725C03E3010EE8
:08030C00006E01D0006A12002E
:10031400969296909598959A959C959E84928490A1
:10032400839E839C839A83987CDE7BDE7ADE838A39
:100334008388848281DE849274DE84827DDE84926A
:1003440070DE848279DE84926CDE8398848274DE2B
:10035400849267DE848270DE8492839A838E8482A0
:100364006BDE84925EDE839E8388848265DE849263
:100374008398848261DE849254DE84825DDE84927A
:100384008388848259DE84924CDE8398848254DE8E
:100394008492838E838C838A838884824DDE8492C4
:0603A40040DE468012005D
:1003AA00F250026EF29E0500FF6A0150FE6E005086
:0803BA00FD6E02BEF28E12007E
:1003C2000900F5CFE6FF0006FBE10106F9E11200A4
:1003D200C1EC03F06F6A070EB46E0F0EC16EFF0E12
:1003E200926E010E946E010E936E816A966A826A13
:1003F20090DF0C0E7E6E24DE3D0E696E000E6A6E7C
:10040200490E476E000E486E69C070F06AC071F006
:100412003CC072F022DF81A002D06F8006D082A0A1
:1004220002D06F8202D080B86F8481B014D06FA0E6
:1004320012D03C2A69C070F06AC071F03CC072F000
:100442000CDF00A007D03C6A69C070F06AC071F08E
:10045200726A03DF6F9082B0C1D06FA2BFD0030E69
:10046200006E000E016E3CC004F0000E056E6BDEE5
:1004720000506924E96E01506A20EA6E120EEE24E1
:10048200F66E000EEE20F76E000EEE20F86E0900FA
:10049200F5CF01F00900F5CF02F00900F5CF03F026
:1004A2000900F5CF04F001C06BF002C06CF003C08C
:1004B2006DF004C06EF0000E006E041808E10050EA
:1004C200031805E10050021802E10150000A26E07B
:1004D200030E006E000E016E3CC004F0000E056EAD
:1004E20032DE00506924E96E01506A20EA6E160E6F
:1004F200EE24F66E000EEE20F76E000EEE20F86E81
:100502006DC0E1FF6EC0E2FF0900F5CF00F000C050
:10051200E6FF6BC000F06CC001F046DF030E006E18
:10052200000E016E3CC004F0000E056E0CDE0050A1
:100532006924E96E01506A20EA6EEECF00F0EECF38
:1005420001F0EECF02F000C0F6FF01C0F7FF02C0DB
:10055200F8FF0900F5CF03F00900F5CF04F0000E13
:10056200041802E1000E031838E047C0E1FF48C05A
:10057200E2FF69C0E6FF6AC0E6FF020E4726000EF0
:100582004822030E006E000E016E3CC004F0000E05
:10059200056ED9DD00506924E96E01506A20EA6EC9
:1005A200EECF00F0EECF01F0EECF02F000C0F6FF8A
:1005B20001C0F7FF02C0F8FF0900F5CF00F0090003
:1005C200F5CF01F000C069F001C06AF03C6A00C0DA
:1005D20070F001C071F0726A40DE6F9280B82BD069
:1005E2006FA429D03C6A490E016E000E026E48507B
:1005F200025C02E14750015C1DE2020E475C006EA4
:10060200000E4858016E00C047F001C048F000C01B
:10061200E9FF01C0EAFFEECF00F0EECF01F000C02B
:1006220069F001C06AF000C070F001C071F03CC016
:0A06320072F013DE6F94EFD6FFD7CD
:1007820010EE15F0310E006E010E016E3C0EF66E8B
:0E079200060EF76E000EF86EE1EC01F012009C
:03063C00646600F1
:0F063F00E006008406006D06009B060000000028
:06064E002507000000007A
:0F065400F706006A07005307003C07000000008C
:010663000096
:09066400C90600B2060000000006
:10066D000000504F525443203D2034000000000044
:07067D0000009C0175000460
:100684000000504F525443203D203200000000002F
:0706940000009C017500024B
:10069B000000504F525443203D2038000000000012
:0706AB0000009C017500082E
:1006B200180046554E43414F203200000000000012
:0706C2000000000000000031
:1006C9002D00444546494E49522054454D504F53FB
:0706D900000000000000001A
:1006E00000004C696761722F6465736C69676172A1
:0706F00000009801750001F4
:1006F70027004F757472612046756E63616F000045
:0707070000000000000000EB
:10070E00000054656D706F204772616E616C686198
:07071E000000A80175002096
:100725000000504F525444203D2033320000000059
:0707350000009C017500208B
:10073C0000004465736C6967617220536169646180
:07074C0073009C0175000021
:100753000000416C7465726E61722053616964615B
:070763007300440175000062
:10076A0000004752414E414C484100000000000041
:07077A000000A8017500005A
:020000040030CA
:0D000100021F1EFF8381FF0FC00FE00F40A4
:00000001FF
