:10000000D9EF09F00000000000EF00F00000000050
:0A0010000000000000000000F3D71C
:10001C000F0E0C6E470E0D6E0D2EFED70C2EFCD750
:06002C00000000001200BC
:0A003200210E0D6E0D2EFED71200F8
:06003C00000000001200AC
:100042000B840BAE2CEF00F0010E036E026A016A04
:0A005200006A0A360232FF0E1200A7
:0E005C00026A016A006A086A036A000E120056
:08006A000AAE029E000E120016
:100072000B820BAE43EF00F0036802680168006870
:080082000A360232FF0E1200E3
:10008A000001EDBF02D0839E01D0838EEDBD02D068
:10009A00839C01D0838CEDBB02D0839A01D0838AE2
:1000AA00EDB902D0839801D08388ADB102D08480A3
:1000BA0001D084908482BDDF8492EDB702D0839E02
:1000CA0001D0838EEDB502D0839C01D0838CEDB331
:1000DA0002D0839A01D0838AEDB102D0839801D0ED
:1000EA008388ADB102D0848001D084908482A1DF5C
:0E00FA008492ADA102D08DDF01D096DF1200FE
:10010800E9C004F0EAC005F004C002F005C003F03D
:10011800044A052AEBC000F0ECC001F00001EB4BEB
:10012800EC2B00C0E9FF01C0EAFF02C0E1FF03C0F9
:10013800E2FFEECFE6FF02C0E9FF03C0EAFFEE529E
:0E01480001E0E2D7E9C000F0EAC001F01200C9
:0E0156000001AD91E9C0EDF095DFAD81120022
:100164000A6A0350D8A40A800750D8A40A820A5005
:10017400D8B415EF01F0030AD8B4CEEF00F00AB0FA
:10018400C9EF00F006AE13EF01F011EF01F002AE7B
:1001940011EF01F013EF01F00250800B0A6E029E82
:1001A4000650800B069E0A18D8B4DFEF00F00A5000
:1001B400D8B411EF01F013EF01F00750035CD8B489
:1001C400E9EF00F0D8A005EF01F00BEF01F00650C5
:1001D400025CD8B4F3EF00F0D8A005EF01F00BEF08
:1001E40001F00550015CD8B4FDEF00F0D8A005EF94
:1001F40001F00BEF01F00450005CD8B415EF01F0EE
:10020400D8B00BEF01F00A52D8B413EF01F011EF9C
:1002140001F00A52D8B411EF01F013EF01F0D880C5
:0E0224001200D8901200D880D8841200120068
:100232000B800BAE25EF01F0026A0AAEFF0E026ED2
:0C024200016E006E0A360232FF0E120040
:10024E000C6A0E6A0250D8A440EF01F001C002F011
:10025E0000C001F0006A0E860250D8A440EF01F0F3
:10026E0001C002F0016A0E960E880250D8B452EF09
:10027E0001F00E50035ED8A4D8A057EF01F0D8902D
:10028E0002BE5CEF01F0003601360236032E47EF58
:10029E0001F057EF01F0010E0C6ED9DE5FEF01F0A9
:1002AE00020E0C6EC7DE5FEF01F0040E0C6ED6DE92
:0202BE0012002C
:0C02C0000E0E0D6E0D2EFED70000120079
:0802CC000B6A0B86FF0E120005
:1002D400086A096A000E07620364EFEF01F0025036
:1002E40006180A6E075003267E0ED8A080EF01F090
:1002F400035ED8B0F3EF01F084EF01F0035ED8A001
:10030400F7EF01F0028E068E02C00EF001C00BF072
:1003140000C00DF000500402F4CF0CF001500502AF
:10032400F4CF00F0F3CF08F00402F3500C26F4509D
:100334000822000E00220D500502F3500C26F45042
:100344000822000E002202500402F3500826F45042
:10035400002202500502016A000E0122F350002619
:10036400F45001220D500602F3500826F4500022E6
:10037400026A000E012202220B500602F3500026EC
:10038400F4500122000E02220E500602F350012600
:10039400F450022202BED7EF01F0083600360136CF
:1003A40002360306D8B4F7EF01F0EAEF01F0D88083
:1003B400800E08640030000E002201220222D8A020
:1003C400EAEF01F0023201320032034AF3EF01F0A6
:1003D4000AAE029E000EF9EF01F0010E3DDEF9EFC8
:1003E40001F0020E44DEF9EF01F0040E28DE1200E3
:1003F4000D6A086A0050D8B4000C04180A6E0ABECC
:100404000D1E0B6A04AE02D0041E042A00AE02D0F4
:10041400001E002A005004100A6E0ABE1FD00450A9
:10042400085E003600340836045008260036060EEE
:100434000C6E00340836045000B0085E00A0082694
:1004440000360C2EF6D700A008260BB015D00DAE42
:10045400000C001E002A081E082A000C04AE09D055
:1004640000BE04D00050086E006AF1D7006A002A6A
:10047400000C001E0B2AD3D7082A0450085CD8A409
:0E048400E6D7086A002A00AEE2D7FF0C12008D
:100492000B6A0350D8B48FEF02F002500A6E028E3C
:1004A2008E0E035E03AE93EF02F0036C080E035C44
:1004B200D8A06EEF02F0036E013602C001F0026AAC
:1004C200080E035CD8A06EEF02F0036E0136016ADB
:1004D2000350D8A4D89078EF02F00350D8B478EF44
:1004E20002F0D89002320132032E72EF02F00BBCFE
:1004F20001A085EF02F0D8A085EF02F0012AD8B45E
:10050200022A02BEA2EF02F00AAEA7EF02F0021E1A
:10051200011E012AD8B4022AA7EF02F0026A016A78
:10052200A7EF02F00B800BAEABEF02F0026A0AAE4D
:10053200ABEF02F0FF0E026E016E0A360232ABEF33
:1005420002F0010E0C6E74DEADEF02F0000E0C6EC6
:10055200ADEF02F0FF0E0C6E0150006E0250016E04
:02056200120085
:10056400A69CDBC0A9FFA69EA680A8CF00F012001F
:1005740000C008F00150006E016A026A036A0B6A47
:100584000C6A016A026A036A960E036E0A6A00AE76
:10059400D2EF02F0081E001E082AD8B4002A0A8EE0
:1005A40000C001F008C000F0086A026A4EDE1200C2
:1005B4000001E76BE86BDBC0E3F0DCC0E4F0DDC016
:1005C400E5F0DEC0E6F0E651FF0A08E1E551FF0A76
:1005D40005E1E451FF0A02E1E351FF0A0CE1DFC047
:1005E400E9F0E0C0EAF04B0EEB6F000EEC6F8ADD31
:1005F400030E006EE9D1010EE16FE5AF0ED0800E5F
:10060400E519006E00C0E5F0E12BDFC0E1FFE0C0BA
:10061400E2FF2D0EE66EDF4BE02B000E006EE619B6
:1006240008E10050E51905E10050E41902E1E35145
:10063400000A0BE1DFC0E9F0E0C0EAF0500EEB6F16
:10064400000EEC6F5FDD006ABFD1E651FF0A08E1DE
:10065400E551000A05E1E451000A02E1E351000A10
:100664000CE1DFC0E9F0E0C0EAF0520EEB6F000EDF
:10067400EC6F48DDE1C000F0A7D1000E046E000E5F
:10068400056E000E066E7F0E076EE3C000F0E4C038
:1006940001F0E5C002F0E6C003F062DD010ED8B05F
:1006A400000E006E00521BE0E3C000F0E4C001F055
:1006B400E5C002F0E6C003F0000E046E000E056E05
:1006C400200E066E820E076E03DE00C0E3F001C04A
:1006D400E4F002C0E5F003C0E6F0E807CED7000E70
:1006E400046E000E056E200E066E820E076EE3C0C9
:1006F40000F0E4C001F0E5C002F0E6C003F030DD34
:10070400000ED8B0010E006E00521BE0E3C000F0F2
:10071400E4C001F0E5C002F0E6C003F0CD0E046EC3
:10072400CC0E056E4C0E066E7B0E076ED1DD00C03E
:10073400E3F001C0E4F002C0E5F003C0E6F0E82B0A
:10074400CED7FF0EE315086EFF0EE415096E7F0E7B
:10075400E5150A6E000EE6150B6E08C004F009C01C
:1007640005F00AC006F00BC007F004360490053605
:1007740006360736000EE315006E000EE415016E12
:10078400000EE515026EFF0EE615036E00C0E3F0E1
:1007940001C0E4F002C0E5F003C0E6F00450E31148
:1007A400006E0550E411016E0650E511026E07500B
:1007B400E611036E00C0E3F001C0E4F002C0E5F00E
:1007C40003C0E6F07F0EE65D006E00C0E2F0010EAD
:1007D400E66F00C004F0E3C000F0E4C001F0E5C03F
:1007E40002F0E6C003F0045007E000360090013642
:1007F40002360336FF0FF8D700C0E3F001C0E4F07F
:1008040002C0E5F003C0E6F0DFC0E1FFE0C0E2FFB4
:10081400E651300FE66EDF4BE02B800EE819006ED8
:10082400800E010A005C08E3800E060A006E800E4A
:10083400E819005C01E30AD0DFC0E1FFE0C0E2FF99
:100844002E0EE66EDF4BE02B010EE76F060EE26F15
:10085400E251000A54E0E66BE3C000F0E4C001F0AA
:10086400E5C002F0E6C003F000360090013602361F
:10087400033600360090013602360336E351002673
:10088400E4510122E5510222E651032200C0E3F0C3
:1008940001C0E4F002C0E5F003C0E6F0E3C000F0FC
:1008A400E4C001F0E5C002F0E6C003F000360090B9
:1008B40001360236033600C0E3F001C0E4F002C0A2
:1008C400E5F003C0E6F0DFC0E1FFE0C0E2FFE6517F
:1008D400300FE66EDF4BE02BE751000A0EE1E8072C
:1008E400E851000A0AE1DFC0E1FFE0C0E2FF2E0E9A
:1008F400E66EDF4BE02B010EE76FE207A9D7FF0E90
:10090400DF25E96EFF0EE021EA6EEE50300A05E1C4
:10091400010EDF5F000EE05BF2D7FF0EDF25E96E0C
:10092400FF0EE021EA6EEE502E0A04E1010EDF5FB5
:10093400000EE05BE851000A41E0DFC0E1FFE0C0E7
:10094400E2FF650EE66EDF4BE02B800EE819006EC9
:10095400800E000A005C0BE2DFC0E1FFE0C0E2FFB2
:100964002D0EE66EDF4BE02BE8510008E86FE8C07F
:10097400E2F0800E090A006E800EE819005C0EE2B7
:100984000A0E046EE2C000F033DDDFC0E1FFE0C018
:10099400E2FF0050300FE66EDF4BE02B0A0E046ED0
:1009A400E2C000F025DD08C000F0DFC0E1FFE0C0D8
:1009B400E2FF0050300FE66EDF4BE02BDFC0E1FFBB
:0A09C400E0C0E2FFE66A006A1200DC
:1009CE0010D0800E0001DB6F1AD0C00EDB6F17D077
:1009DE00940EDB6F14D0D40EDB6F11D0800EDB6F54
:1009EE000ED00001DB51010AECE0DB51020AEDE012
:1009FE00DB51030AEDE0DB51040AEDE0EFD7DC0535
:100A0E00006EDB51002600C0DBF000C0EDF045ECBF
:100A1E0000F0AD91DF6BDF51DD25E96E000EDE21BA
:100A2E00EA6EEE520CE0DF51DD25E96E000EDE219E
:100A3E00EA6EEECFE9F0ABEC00F0DF2BECD7AD8138
:020A4E00120094
:100A5000C26A4F1C006E0050C116070EC012C08E35
:100A6000DBC000F000360090003600900050C2124B
:100A7000C28026DCC282C2A201D0FDD7C4CF01F061
:0E0A8000006AC3500012000E0112C290120054
:100A8E000450000A12E10550000A0FE10650000A58
:100A9E000CE10750000A09E1FF0E006EFF0E016E19
:100AAE007F0E026EFF0E036EA8D0086A096A075009
:100ABE00D8B4F2EF05F00350D8B4F7EF05F00250BA
:100ACE0006180A6E028E068E0E6A02C008F001C06B
:100ADE000CF000C00DF004500D5E0550D8A0053C82
:100AEE000C5E0650D8A0063C085E086A0C6A0D6AB9
:100AFE00D8A089EF05F0D8900232013200320832C8
:100B0E00010E0E6E0750035ED8A096EF05F07E0E16
:100B1E000E240326D8B0FCEF05F09CEF05F07E0EF8
:100B2E000E240326D8A001EF06F0180E0B6E0D361C
:100B3E000C3608360036013602360E360450005E8C
:100B4E000550D8A0053C015E0650D8A0063C025EBA
:100B5E0006340E120EA0B7EF05F00D80C2EF05F0B1
:100B6E00045000260550D8B0053C01260650D8B0DA
:100B7E00062802260D900B2E9EEF05F0E8EF05F0ED
:100B8E00D8900036013602360E360450005E0550FF
:100B9E00D8A0053C015E0650D8A0063C025E063485
:100BAE000E10010B0D26D8B00C2AD8B4082AD8A4E2
:100BBE00E8EF05F008320C320D32032AD8B4FCEF00
:100BCE0005F00AAE089E0850026E0C50016E0D50D4
:100BDE00006E04EF06F0010E66EC01F004EF06F075
:100BEE00020E2EEC00F004EF06F0040E39EC00F0CD
:0C0BFE0004EF06F0080E21EC00F01200DD
:100C0A000050086E0150006E016A026A036A0B6A9C
:100C1A000C6A960E036E0A6A00C001F008C000F062
:0A0C2A00086A026A27EC01F01200CC
:100C3400A7C0E1FFA8C0E2FFA5C0E6FFA6C0E6FF8B
:100C4400020E0001A727000EA823010EED6F45EC4C
:100C540000F0010EED6F45EC00F0010EDB6F010EAC
:100C6400DC6F270EDD6F000EDE6FAFDE040EDB6F70
:100C740077DC00C0DDF0000EDE6F020EDB6F010ECC
:100C8400DC6FA3DE060E0B6E130E0C6EAD0E0D6E36
:100C94000D2EFED70C2EFCD70B2EFAD70000000029
:100CA40080B856D0DB6BD2DE00C0ABF001C0ACF034
:100CB400AADF000E046E000E056E200E066E810E75
:100CC400076E6AEC01F0000E046E000E056E000E55
:100CD400066E890E076ED9DE000E046E000E056ED8
:100CE400700E066E840E076E6AEC01F0000E046E40
:100CF400000E056E200E066E810E076EC6DE49ECF0
:100D040002F000C0A9F001C0AAF032DC00C0DBF0A0
:100D140001C0DCF002C0DDF003C0DEF0960E00017D
:100D2400DF6F000EE06F44DC986B020EDB6F010E88
:100D3400DC6F960EDD6F000EDE6F47DE020EDB6F9A
:100D4400030EDC6F490EDD6F000EDE6F3EDEA8D7AA
:020D540012008B
:040D56008172120094
:100D5A000B6A0A6A096A00500402F4CF09F0F3CF59
:100D6A0008F001500502F4CF0BF0F3CF0AF000505F
:100D7A000502F3500926F4500A22E86A0B220150B0
:100D8A000402F3500926F4500A22E86A0B2208C02A
:100D9A0000F009C001F00AC002F00BC003F0120013
:100DAA00D8C0F6FFD9C0F7FFDAC0F8FF0900F5CFBF
:100DBA0000F0005211E0D8C0F6FFD9C0F7FFDAC040
:100DCA00F8FF0900F5CFE9F0ABEC00F0010ED827E7
:0A0DDA00000ED923DA23E4D712003B
:100DE40010D0800E0001D86F1AD0C00ED86F17D063
:100DF400940ED86F14D0D40ED86F11D0800ED86F43
:100E04000ED00001D851010AECE0D851020AEDE0FD
:100E1400D851030AEDE0D851040AEDE0EFD7D90523
:100E2400006ED851002600C0D8F0AD8100C0EDF0AE
:100E340045EC00F0AD91DAC0EDF045EC00F0AD8189
:020E440012009A
:100E4600A7C0E1FFA8C0E2FFA5C0E6FFA6C0E6FF77
:100E5600020E0001A727000EA823010EED6F45EC38
:100E660000F0010EDB6F010EDC6F620EDD6F000E0F
:100E7600DE6FAADD020EDB6FB2EC02F000C0DDF021
:100E8600000EDE6F020EDB6F010EDC6F9DDD060EBF
:100E96000B6E130E0C6EAD0E0D6E0D2EFED70C2EB8
:100EA600FCD70B2EFAD70000000080B858D0DB6BB9
:100EB600CCDD00C0ABF001C0ACF0A4DE000E046EC9
:100EC600000E056E200E066E810E076E6AEC01F0AE
:100ED600000E046E000E056E000E066E890E076E7D
:100EE600D3DD000E046E000E056E700E066E840EC7
:100EF600076E6AEC01F0000E046E000E056E200E01
:100F0600066E810E076EC0DD49EC02F000C0A9F046
:100F160001C0AAF0BAEC02F000C0DBF001C0DCF0C0
:100F260002C0DDF003C0DEF0960E0001DF6F000E9A
:100F3600E06FDAEC02F0986B020EDB6F010EDC6FED
:100F4600960EDD6F000EDE6F3FDD020EDB6F030EC9
:100F5600DC6F600EDD6F000EDE6F36DDA6D7120089
:0E0F66000001D8B102D0819201D08182120028
:040F74008172120074
:100F7800A7C0E1FFA8C0E2FFA5C0E6FFA6C0E6FF44
:100F8800020E0001A727000EA823010EED6F45EC05
:100F980000F0010EED6F45EC00F0010EDB6F010E65
:100FA800DC6F390EDD6F000EDE6F0DDD030EDB6FBB
:100FB800B2EC02F000C0DDF0000EDE6F020EDB6F57
:100FC800010EDC6F00DD060E0B6E130E0C6EAD0EFF
:100FD8000D6E0D2EFED70C2EFCD70B2EFAD7000067
:100FE800000080B858D0DB6B2FDD00C0ABF001C02B
:100FF800ACF007DE000E046E000E056E200E066EC5
:10100800810E076E6AEC01F0000E046E000E056E8C
:10101800000E066E890E076E36DD000E046E000E99
:10102800056E700E066E840E076E6AEC01F0000EF7
:10103800046E000E056E200E066E810E076E23DD0F
:1010480049EC02F000C0A9F001C0AAF0BAEC02F025
:1010580000C0DBF001C0DCF002C0DDF003C0DEF050
:10106800960E0001DF6F000EE06FDAEC02F0986B6D
:10107800020EDB6F010EDC6F960EDD6F000EDE6F69
:10108800A2DC020EDB6F030EDC6F150EDD6F000EA7
:08109800DE6F99DCA6D71200FF
:1010A000A7C0E1FFA8C0E2FFA5C0E6FFA6C0E6FF1B
:1010B000020E0001A727000EA823010EED6F45ECDC
:1010C00000F0010EED6F45EC00F0010EDB6F010E3C
:1010D000DC6F170EDD6F000EDE6F79DC050EDB6F47
:1010E000B2EC02F000C0DDF0000EDE6F020EDB6F2E
:1010F000010EDC6F6CDC060E0B6E130E0C6EAD0E6B
:101100000D6E0D2EFED70C2EFCD70B2EFAD700003D
:10111000000080B858D0DB6B9BDC00C0ABF001C096
:10112000ACF073DD000E046E000E056E200E066E30
:10113000810E076E6AEC01F0000E046E000E056E63
:10114000000E066E890E076EA2DC000E046E000E05
:10115000056E700E066E840E076E6AEC01F0000ECE
:10116000046E000E056E200E066E810E076E8FDC7B
:1011700049EC02F000C0A9F001C0AAF0BAEC02F0FC
:1011800000C0DBF001C0DCF002C0DDF003C0DEF027
:10119000960E0001DF6F000EE06FDAEC02F0986B44
:1011A000020EDB6F010EDC6F960EDD6F000EDE6F40
:1011B0000EDC020EDB6F030EDC6F370EDD6F000EF0
:0811C000DE6F05DCA6D712006A
:1011C800F250026EF29E0500FF6A0150FE6E00505A
:0811D800FD6E02BEF28E120052
:1011E000A6A202D00000FCD7A69CD3C0A9FFD4C001
:1011F000A8FFA69EA684F2CF00F0F29E550EA76E21
:10120000AA0EA76EA68200BE02D0F29E01D0F28E78
:0E121000A694A1B802D00000FCD7A19812004D
:10121E000900F5CFE6FF0006FBE10106F9E1120039
:10122E000001D66B010ED76F010EED6F45EC00F08D
:10123E00000ED41902E1000ED31902E1006A4ED05D
:10124E00030E006E000E016ED6C004F0000E056E89
:10125E007DDD0050D325E96E0150D421EA6EEE50AB
:10126E00EE10EE1034E0D551D65D02E2D62BE8D763
:10127E00D651D51908E1D7C0D8F0010ED96F3E0E60
:10128E00DA6FA9DD07D0D7C0D8F0010ED96F200EC6
:10129E00DA6FA1DDD72B030E006E000E016ED6C0E5
:1012AE0004F0000E056E52DD0050D325E96E01509C
:1012BE00D421EA6E020EEE24D86F000EEE20D96F06
:1012CE00000EEE20DA6F6ADD0001D62BB9D7D651AB
:0E12DE00D55D03E3010E006E01D0006A120020
:1012EC00969296909598959A959C959E84928490BA
:1012FC00839E839C839A83980EEC00F00EEC00F096
:10130C000EEC00F0838A838884821EEC00F08492B9
:10131C000EEC00F084821EEC00F084920EEC00F0D7
:10132C0084821EEC00F084920EEC00F08398848290
:10133C001EEC00F084920EEC00F084821EEC00F0A7
:10134C008492839A838E84821EEC00F084920EEC3D
:10135C0000F0839E838884821EEC00F08492839834
:10136C0084821EEC00F084920EEC00F084821EEC61
:10137C0000F08492838884821EEC00F084920EEC40
:10138C0000F0839884821EEC00F08492838E838C10
:10139C00838A838884821EEC00F084920EEC00F029
:0613AC000001AD811200FA
:1013B200EBEC0BF00001D26B070EB46EC26A0E0E9C
:1013C200C16EA90EC06EFF0E926E010E946E010EDA
:1013D200936E816A966A826A020ED36F7B0ED46F15
:1013E200FEDE030E0001D36F7C0ED46FF8DE040E16
:1013F2000001D36F7D0ED46FF2DE050E0001D36FB4
:101402007E0ED46FECDE71DF0C0EED6F45EC00F05A
:10141200560EA56F000EA66FAE0EA76F000EA86F38
:10142200A5C0D3F0A6C0D4F05FC0D5F0FFDE81A086
:1014320002D0D28106D082A002D0D28302D080B85C
:10144200D28581B014D0D2A112D05F2AA5C0D3F028
:10145200A6C0D4F05FC0D5F0E9DE00A007D05F6A75
:10146200A5C0D3F0A6C0D4F0D56BE0DED29182B095
:10147200C3D0D2A3C1D0030E006E000E016E5FC0B6
:1014820004F0000E056E68DC0050A525E96E0150DF
:10149200A621EA6E120EEE24F66E000EEE20F76E14
:1014A200000EEE20F86E0900F5CF01F00900F5CF2D
:1014B20002F00900F5CF03F00900F5CF04F001C0F6
:1014C200CEF002C0CFF003C0D0F004C0D1F0000EC5
:1014D200006E041808E10050031805E100500218DC
:1014E20002E10150000A26E0030E006E000E016EBA
:1014F2005FC004F0000E056E2FDC0050A525E96EDA
:101502000150A621EA6E160EEE24F66E000EEE20B3
:10151200F76E000EEE20F86ED0C0E1FFD1C0E2FF00
:101522000900F5CF00F000C0E6FFCEC000F0CFC04A
:1015320001F049DE030E006E000E016E5FC004F082
:10154200000E056E09DC00500001A525E96E015070
:10155200A621EA6EEECF00F0EECF01F0EECF02F060
:1015620000C0F6FF01C0F7FF02C0F8FF0900F5CF87
:1015720003F00900F5CF04F0000E041802E1000E9A
:10158200031839E0A7C0E1FFA8C0E2FFA5C0E6FF4B
:10159200A6C0E6FF020EA727000EA823030E006EC8
:1015A200000E016E5FC004F0000E056EADEC06F099
:1015B2000050A525E96E0150A621EA6EEECF00F09B
:1015C200EECF01F0EECF02F000C0F6FF01C0F7FF50
:1015D20002C0F8FF0900F5CF00F00900F5CF01F0D5
:1015E20000C0A5F001C0A6F05F6A00C0D3F001C040
:1015F200D4F0D56B1BDED29380B82BD0D2A529D0E4
:101602005F6AAE0E016E000E026EA851025C02E12C
:10161200A751015C1DE2020EA75D006E000EA859E3
:10162200016E00C0A7F001C0A8F000C0E9FF01C030
:10163200EAFFEECF00F0EECF01F000C0A5F001C04E
:10164200A6F000C0D3F001C0D4F05FC0D5F0EEDD4B
:06165200D295EDD6FFD792
:1017D60010EE15F0810E006E010E016E580EF66EBB
:0E17E600160EF76E000EF86E0FEC09F01200F2
:0216580073001D
:10165A004461646F73206E6120454550524F4D00BE
:10166A004461646F73206E6120454550524F4D00AE
:02167A007300FB
:10167C004461646F73206E6120454550524F4D009C
:02168C007300E9
:04168E004E614E005B
:011692003027
:02169300300025
:04169500494E460074
:091699003517001E1700000000C7
:0116A2000047
:0216A3007300D2
:1016A5004461646F73206E6120454550524F4D0073
:0616B5007A17000000009E
:0F16BB006317004C1700BF1700A81700000000AE
:0F16CA00911700F01600D9160007170000000056
:1016D9000000504F525443203D20340000000000C8
:0716E9000000660FD80004A9
:1016F0000000504F525443203D20320000000000B3
:071700000000660FD8000293
:101707000000504F525443203D2038000000000095
:071717000000660FD8000876
:10171E00870046554E43414F203200000000000026
:07172E0000000000000000B4
:10173500780054454D504F53200000000000000034
:07174500000000000000009D
:10174C000000454C455641444F520000000000003B
:07175C000000780FD8000027
:1017630000004A41544F0000000000000000000048
:071773000000460ED8000043
:10177A000000504F525444203D20333200000000F4
:07178A000000660FD80020EB
:1017910000004C696761722F6465736C69676172DF
:0717A1000000740FD80001E5
:1017A8000000455354454952410000000000000024
:0717B8000000340CD8000012
:1017BF0000004558415553544F520000000000009F
:0717CF000000A010D800008B
:020000040030CA
:0D000100021F1EFF8381FF0FC00FE00F40A4
:00000001FF
